:100000000C9429010C9451010C9451010C944F064D
:100010000C944F060C944F060C9451010C94510112
:100020000C9451010C9451010C9451010C94510108
:100030000C9451010C9451010C9451010C945101F8
:100040000C9405060C9451010C948F020C946902D7
:100050000C9451010C9451010C9451010C945101D8
:100060000C9451010C9451012200542E5443732ED0
:100070007478743D22005A3E333130393C53005974
:100080003E333130383C5300583E333130373C53E7
:1000900000573E333130363C5300563E3331303515
:1000A0003C5300553E333130333C5300543E3331E2
:1000B00030323C5300533E333130313C5300523EDA
:1000C000333130303C5300513E3335363C530050D1
:1000D0003E3335343C53004F3E3335333C53004EB2
:1000E0003E3335323C53004D3E3335313C53004CAA
:1000F0003E3335303C53004B3E3334393C53004A99
:100100003E3334373C5300493E3334363C53004889
:100110003E3334353C5300473E3334343C53004681
:100120003E3334333C5300453E3334313C5300447A
:100130003E3334323C5300433E3334303C53004270
:100140003E3333393C5300413E3333383C53000097
:10015000000000240027002A0000000000250028DD
:10016000002B00000000080002010000030407004B
:1001700000000000000000220045562E4137532E9B
:100180007478743D2200220045562E4136532E7459
:1001900078743D2200220045562E4137532E747844
:1001A000743D2200220045562E4136532E74787439
:1001B0003D2200220045562E4135532E7478743D61
:1001C0002200220045562E4134532E7478743D226D
:1001D00000220045562E4133532E7478743D220080
:1001E000220045562E4132532E7478743D2200224F
:1001F0000045562E4131532E7478743D2200220062
:1002000045562E4130532E7478743D220000000074
:10021000002300260029002200542E546F4E6578DA
:10022000742E7478743D220004040404040404044D
:100230000202020202020303030303030102040891
:100240001020408001020408102001020408102040
:10025000DE2111241FBECFEFD8E0DEBFCDBF11E0FD
:10026000A0E0B1E0E4EFF1E502C005900D92A23903
:10027000B107D9F725E0A2E9B1E001C01D92A93389
:10028000B207E1F711E0C9E2D1E004C02197FE0115
:100290000E94DE26C832D107C9F70E9461150C946E
:1002A000F8280C940000FC01538D448D252F30E07C
:1002B000842F90E0821B930B541710F0CF96089573
:1002C00001970895FC01918D828D981761F0828DC0
:1002D000DF01A80FB11D5D968C91928D9F5F9F737A
:1002E000928F90E008958FEF9FEF0895FC01918D1C
:1002F000828D981731F0828DE80FF11D858D90E089
:1003000008958FEF9FEF0895FC01918D228D892F25
:1003100090E0805C9F4F821B91098F73992708950D
:100320008AED93E00E94840121E0892B09F420E00A
:10033000822F0895FC01848DDF01A80FB11DA35AFF
:10034000BF4F2C91848D90E001968F739927848FF5
:10035000A689B7892C93A089B1898C918370806418
:100360008C93938D848D981306C00288F389E02DB9
:1003700080818F7D80830895EF92FF920F931F936A
:10038000CF93DF93EC0181E0888F9B8D8C8D981348
:1003900005C0E889F989808185FD26C0F62E0B8D80
:1003A00010E00F5F1F4F0F731127E02E8C8DE812A6
:1003B0000CC00FB607FCFACFE889F989808185FF68
:1003C000F5CFCE010E949A01F1CF8B8DFE01E80F8F
:1003D000F11DE35AFF4FF0829FB7F8940B8FEA8923
:1003E000FB89808180620AC09FB7F894EE89FF89FB
:1003F0006083E889F98980818370806480839FBFEE
:1004000081E090E0DF91CF911F910F91FF90EF90ED
:100410000895CF93DF93EC01888D8823C9F0EA8992
:10042000FB89808185FD05C0A889B9898C9186FDED
:100430000FC00FB607FCF5CF808185FFF2CFA889EA
:10044000B9898C9185FFEDCFCE010E949A01E7CF4B
:10045000DF91CF91089580E090E0892B29F00E94F0
:10046000900181110C94000008953FB7F894809199
:100470009F039091A003A091A103B091A20326B580
:10048000A89B05C02F3F19F00196A11DB11D3FBFCC
:10049000BA2FA92F982F8827820F911DA11DB11D5A
:1004A000BC01CD0142E0660F771F881F991F4A9556
:1004B000D1F708958EBD00000DB407FEFDCF8EB5B7
:1004C00008958FEF0C945A0280E090E008950E9406
:1004D000CB281F920F920FB60F9211242F933F93A8
:1004E0004F935F936F937F938F939F93AF93BF933C
:1004F000EF93FF938AED93E00E949A01FF91EF91B1
:10050000BF91AF919F918F917F916F915F914F912B
:100510003F912F910F900FBE0F901F9018951F9233
:100520000F920FB60F9211242F938F939F93EF93F7
:10053000FF93E091EA03F091EB038081E091F003F7
:10054000F091F10382FD12C090818091F3038F5FDF
:100550008F732091F403821751F0E091F303F0E0E0
:10056000E652FC4F958F8093F30301C08081FF9189
:10057000EF919F918F912F910F900FBE0F901F9031
:10058000189590E0FC01ED59FE4F2491FC01E45CCC
:10059000FD4F3491FC01E85DFD4FE491EE2309F439
:1005A0003CC0222339F1233091F038F42130A9F0F6
:1005B000223001F584B58F7D12C0273091F02830AC
:1005C000A1F02430B9F4809180008F7D03C0809128
:1005D00080008F77809380000DC084B58F7784BDB5
:1005E00009C08091B0008F7703C08091B0008F7DEB
:1005F0008093B000F0E0EE0FFF1FE75AFE4FA59189
:10060000B4919FB7F894611104C08C913095382350
:1006100002C0EC913E2B3C939FBF089561E0FC012A
:1006200084810E94C10280919201811110929201F5
:100630000895CF93DF93EC018E81882389F08F8119
:1006400098859C012F5F3F4F38872F8382309240DF
:1006500018F40E946102F3CFCE010E940E031E82A5
:10066000DF91CF910895CF93DF9390E0FC01E45C9C
:10067000FD4F2491FC01E85DFD4F8491882361F1D9
:1006800090E0880F991FFC01E15BFE4FC591D4916A
:10069000FC01E75AFE4FA591B491611109C09FB7C3
:1006A000F8948881209582238883EC912E230BC0B7
:1006B000623061F49FB7F8948881322F309583239C
:1006C0008883EC912E2B2C939FBF06C08FB7F89494
:1006D000E8812E2B28838FBFDF91CF9108951F9340
:1006E000CF93DF93182FEB0161E00E943303209733
:1006F00011F460E004C0CF3FD10539F461E0812FEF
:10070000DF91CF911F910C94C102E12FF0E0ED59E0
:10071000FE4FE491E330F9F048F4E130B9F0E23013
:10072000A1F584B5806284BDC8BD34C0E730E9F06E
:10073000E83019F1E43049F58091800080628093BF
:100740008000D0938B00C0938A0024C084B5806859
:1007500084BDC7BD1FC080918000806880938000E9
:10076000D0938900C093880015C08091B000806844
:100770008093B000C093B3000DC08091B000806240
:100780008093B000C093B40005C0C038D1050CF010
:10079000B5CFAFCFDF91CF911F9108958E3008F084
:1007A0008E502091040190E4299F900111248770BC
:1007B000822B80937C0080917A00806480937A0001
:1007C00080917A0086FDFCCF80917800209179009D
:1007D00090E0922B08958F929F92AF92BF92CF920A
:1007E000DF92EF92FF926B017C010E9435024B0178
:1007F0005C01C114D104E104F104F1F00E9435025E
:10080000DC01CB0188199909AA09BB09883E9340EC
:10081000A105B10570F321E0C21AD108E108F10881
:1008200088EE880E83E0981EA11CB11CC114D1046F
:10083000E104F10419F7DDCFFF90EF90DF90CF9046
:10084000BF90AF909F908F9008952FB7F8946091CC
:100850009B0370919C0380919D0390919E032FBFF9
:1008600008950F931F93CF93DF93EB010E9425040C
:100870008B010E9461028F3F49F00E942504601B9A
:10088000710B6C177D07A8F380E001C081E0DF9158
:10089000CF911F910F9108958F929F92AF92BF9227
:1008A000FF920F931F93CF93DF93EC01F62E490134
:1008B0005A010E94190380919201811109C081E0BF
:1008C0008093920190917704809178049CBD8DBDB6
:1008D00060E08C810E94C1026CE271E0CE010E9456
:1008E00031048F2D80640E945A0208E110E0D50186
:1008F000C401002E04C0B695A795979587950A94D4
:10090000D2F70E945A0208501109083F8FEF1807CA
:1009100071F7FF2029F088E0F81204C087E803C0CF
:1009200085E901C08FEF0E945A0210E00E94610227
:100930008A8787FF04C01F3F11F01F5FF7CFDF9149
:10094000CF911F910F91FF90BF90AF909F908F908C
:100950000895EF92FF920F931F93CF93DF93EC01D3
:100960007901411551056105710511F482E13CC021
:100970008B85833039F089E0440F551F661F771F40
:100980008A95D1F79A01AB0168E1CE010E944C042F
:10099000882311F084E028C08EEF0E945A0287015C
:1009A0008EEFF81AF80181918F010E945A02E01629
:1009B000F106C1F78FEF0E945A028FEF0E945A0290
:1009C0000E9461028A878F71853031F081E18D83C9
:1009D000CE010E940E0309C068E572E0CE010E94BC
:1009E0003104811107C085E18D83CE010E940E0381
:1009F00080E014C020E030E0A9016DE0CE010E944B
:100A00004C04811109C00E946102811105C0CE0110
:100A10000E940E0381E002C084E1E6CFDF91CF9116
:100A20001F910F91FF90EF9008958091930188237B
:100A300089F1409100015091010160910201709192
:100A4000030128E931E080E090E00E94A9048111CF
:100A500002C080E008954091940150919501609109
:100A6000960170919701411551056105710581F05D
:100A700028E931E080E090E00E94A904882349F34E
:100A80001092940110929501109296011092970184
:100A90001092930181E00895AF92BF92CF92DF92BE
:100AA000EF92FF921F93CF93DF936B017C01142F82
:100AB0008091000190910101A0910201B091030188
:100AC0008C159D05AE05BF0509F48FC00E94150564
:100AD000882309F490C0809106008823A1F08091BA
:100AE000000090910100A0910200B0910300C8168F
:100AF000D906EA06FB0639F48091070090910800B8
:100B0000892B09F443C0C0920000D0920100E0920A
:100B10000200F092030080910B00A7019601833040
:100B200039F099E0220F331F441F551F9A95D1F7D2
:100B300061E180E090E00E944C04882321F083E092
:100B40008093050044C00E942504EB010E946102CD
:100B500080930A008F3F49F40E9425046C1B7D0B93
:100B60006D32714098F38FE003C08E3F41F08DE00D
:100B70008093050080E090E00E940E0328C0109250
:100B800008001092070081E080930600C8E9D1E0D8
:100B900088E9A82E83E0B82E0E9461028993AC16E2
:100BA000BD06D1F780910700909108009E5F909359
:100BB00008008093070020910900222319F0811575
:100BC000924058F080E090E00E94190306C080E057
:100BD00090E00E940E0380E00EC0C0920001D0920F
:100BE0000101E0920201F092030140919301412B37
:100BF0004093930181E0DF91CF911F91FF90EF909F
:100C0000DF90CF90BF90AF9008951F920F920FB6D4
:100C10000F9211242F933F938F939F93AF93BF9382
:100C200080919B0390919C03A0919D03B0919E03A2
:100C300030919A0323E0230F2D3720F40196A11D54
:100C4000B11D05C026E8230F0296A11DB11D2093FA
:100C50009A0380939B0390939C03A0939D03B0936E
:100C60009E0380919F039091A003A091A103B09156
:100C7000A2030196A11DB11D80939F039093A00331
:100C8000A093A103B093A203BF91AF919F918F91C5
:100C90003F912F910F900FBE0F901F9018951F92AC
:100CA0000F920FB60F9211240F900FBE0F901F904E
:100CB00018954F925F926F927F928F929F92AF9210
:100CC000BF92CF92DF92EF92FF920F931F93CF9339
:100CD000DF93EC01423051056105710510F480E0AD
:100CE00078C089859A85AB85BC850196A11DB11D0B
:100CF00084179507A607B70790F3CB88DC88ED88A3
:100D0000FE888F89803129F4BB27A72F962F852F46
:100D100009C0DB01CA01E7E0B695A79597958795CD
:100D2000EA95D1F7480159012A013B01C80ED91EA5
:100D3000EA1EFB1E8091000190910101A091020129
:100D4000B0910301C816D906EA06FB0681F48F8923
:100D50008031A9F4B301A201552766277727440FF4
:100D6000551FFA01E856FE4F9182808219C040E07B
:100D7000C701B6010E944C058111E9CFB0CFB30184
:100D8000A2014F77552766277727440F551F440F39
:100D9000551FFA01E856FE4F80829182A282B382EB
:100DA000809193018160809393018A89823080F0E1
:100DB0008D819E81AF81B885C80ED91EEA1EFB1EAB
:100DC000C0929401D0929501E0929601F092970121
:100DD00081E0DF91CF911F910F91FF90EF90DF9015
:100DE000CF90BF90AF909F908F907F906F905F90CB
:100DF0004F9008958F929F92AF92BF92CF92DF92C1
:100E0000EF92FF920F931F93CF93DF93FC018185A5
:100E10009285A385B4850196A11DB11D8417950700
:100E2000A607B70710F480E05BC083889488A58884
:100E3000B6888789803129F4BB27A72F962F852F65
:100E400009C0DB01CA01C7E0B695A79597958795BC
:100E5000CA95D1F7E9016A017B018F01BC01CD017F
:100E6000680D791D8A1D9B1D8090000190900101E5
:100E7000A0900201B0900301681579058A059B05D1
:100E800091F4F80187898031A1F4DD24EE24FF2458
:100E9000C601880F991FFC01E856FE4F80819181A1
:100EA000A0E0B0E018C040E00E944C058111E9CFFD
:100EB000BACFE894C7F8DD24EE24FF24C601880FDA
:100EC000991F880F991FFC01E856FE4F8081918180
:100ED000A281B381BF7088839983AA83BB8381E099
:100EE000DF91CF911F910F91FF90EF90DF90CF9006
:100EF000BF90AF909F908F9008954F925F926F92A6
:100F00007F92AF92BF92CF92DF92EF92FF920F93B8
:100F10001F93CF93DF9300D000D01F92CDB7DEB7E1
:100F20008C016D83DC0115968C911597813009F049
:100F300054C014968C9181FF50C057C0258530E075
:100F4000275F3F4F2A013B01B1E04B1A510861086E
:100F50007108022E04C076946794579447940A94BB
:100F6000D2F7D701C6010197A109B10904C0B6950E
:100F7000A795979587952A95D2F784159505A60587
:100F8000B70508F076C0F8014789508D618D728DE4
:100F900046835783608771872C013D015801F6E035
:100FA000AF0EB11C411451046104710409F46BC00B
:100FB000D80116964D915D916D917C91199795018F
:100FC0005B968D919C915C970E94FA06B1E04B1A5A
:100FD0005108610871088111E5CF81E090E0F801C6
:100FE0009383828380E090E05BC182FF0EC0F801B2
:100FF0004285538564857585C388D488E588F688DD
:101000004C155D056E057F05E9F4D8011A964D91E2
:101010005D916D917C911D975B96ED91FC915C9734
:10102000948191506A017B0189E0F694E794D7940A
:10103000C7948A95D1F79C217A01B1E0FB229111E6
:1010400073C027C0D801038CF48DE02DC114D104E6
:10105000E104F10409F072CF16961D921D921D92C3
:101060001C9219971A961D921D921D921C921D9703
:1010700014C0452B462B472B09F485CF84199509BD
:10108000A609B70989CFF801C286D386E486F5861A
:10109000BCCFE114F10409F047C0D80116964D9178
:1010A0005D916D917C91199741155105610571050F
:1010B00059F457968D919D910D90BC91A02D00975C
:1010C000A105B10549F522C09E012F5F3F4FCF0119
:1010D0000E94FA06882309F485CF89819A81AB8121
:1010E000BC81F801238D348DF9012789203129F441
:1010F00048EF5FEF60E070E004C048EF5FEF6FEF34
:101100007FE084179507A607B70730F0C8010E9453
:101110007710811106C061CFF80186839783A0877D
:10112000B187E12CF12C90E0D8015B96ED91FC9118
:101130005C9716964D905D906D907C901997B2E0FB
:101140004B1A510861087108058404C0440C551CF1
:10115000661C771C0A94D2F7468557856089718989
:10116000440E551E661E771E490E511C611C711CD3
:10117000E114F10409F5F80142855385648575850C
:1011800083899489A589B689481759076A077B0717
:1011900098F00E941505882309F41FCF40920001A2
:1011A00050920101609202017092030180919301BB
:1011B00081608093930108C041E0C301B2010E94A5
:1011C0004C05882309F409CFF701E856FE4F8D81BD
:1011D0008083F80182859385A485B5850196A11D3C
:1011E000B11D82879387A487B58743895489658910
:1011F0007689481759076A077B0738F4838B948BE5
:10120000A58BB68B848180688483D80114968C91D9
:1012100083FD03C081E090E043C0F80195819923EC
:1012200009F4DBCE87FF37C0668577858089918991
:1012300041E00E944C05882309F4CFCED801529694
:10124000EC91B0E2EB9FF0011124E856FE4F30978D
:1012500009F4C3CED80115968C911597823050F4BD
:1012600053964D915D916D917C915697448F558F1A
:10127000668F778FD80157964D915D916D917C91D6
:101280005A97538F428F758B648B14968C91149759
:101290008F7714968C930E9415058111BBCF9DCE3C
:1012A0000F900F900F900F900F90DF91CF911F91A3
:1012B0000F91FF90EF90DF90CF90BF90AF907F9015
:1012C0006F905F904F9008954F925F926F927F92D0
:1012D0008F929F92AF92BF92CF92DF92EF92FF9246
:1012E000CF93DF93CDB7DEB72A970FB6F894DEBF62
:1012F0000FBECDBF67E471E0CE0101960E941E14BF
:1013000041E050E060E070E0CE0101960E9458128A
:101310009093230180932201CE0101960E945312E3
:101320006FE371E0CE0101960E941E1441E050E08F
:1013300060E070E0CE0101960E9458129093320155
:1013400080933101CE0101960E94531267E371E050
:10135000CE0101960E941E1441E050E060E070E072
:10136000CE0101960E94581290930C0180930B01BC
:10137000CE0101960E9453126FE271E0CE010196F8
:101380000E941E1444E650E06CE97FEFCE01019606
:101390000E9458129093120180931101CE01019680
:1013A0000E94531267E271E0CE0101960E941E1462
:1013B00044E650E06CE97FEFCE0101960E9458129E
:1013C0009093140180931301CE0101960E94531251
:1013D0006FE171E0CE0101960E941E1441E050E0E1
:1013E0006CE97FEFCE0101960E945812909318018C
:1013F00080931701CE0101960E94531267E171E0BC
:10140000CE0101960E941E1441E050E06CE97FEF8E
:10141000CE0101960E9458129093160180931501F7
:10142000CE0101960E9453126FE071E0CE01019649
:101430000E941E1441E050E06CE97FEFCE0101965E
:101440000E94581290931A0180931901CE010196BF
:101450000E94531267E071E0CE0101960E941E14B3
:1014600041E050E060E070E0CE0101960E94581229
:1014700090931C0180931B01CE0101960E94531290
:101480006FEF70E0CE0101960E941E1441E050E023
:1014900068E37FEFCE0101960E94581290932001DD
:1014A00080931F01CE0101960E94531267EF70E0F6
:1014B000CE0101960E941E1444E650E06CE97FEFD5
:1014C000CE0101960E945812909328018093270123
:1014D000CE0101960E9453126FEE70E0CE0101968C
:1014E0000E941E1444E650E06CE97FEFCE010196A5
:1014F0000E9458129093250180932401CE010196F9
:101500000E94531267EE70E0CE0101960E941E14F5
:1015100041E050E060E070E0CE0101960E94581278
:1015200090931E0180931D01CE0101960E945312DB
:1015300060911D0170911E01072E000C880B990B04
:101540000E94262420E030E048EC52E40E949C25D2
:1015500020E030E04FE753E40E94852420E030E0B3
:1015600048EC52E40E94092620E030E048EC52E4C6
:101570000E949D250E947B2670931E0160931D0191
:101580006FED70E0CE0101960E941E1444E650E01B
:101590006CE97FEFCE0101960E94581290934201B0
:1015A00080934101CE0101960E94531267ED70E0D5
:1015B000CE0101960E941E1444E650E06CE97FEFD4
:1015C000CE0101960E94581290932A01809329011E
:1015D000CE0101960E9453126FEC70E0CE0101968D
:1015E0000E941E1441E050E060E070E0CE010196E0
:1015F0000E9458129093300180932F01CE010196E2
:101600000E94531267EC70E0CE0101960E941E14F6
:1016100041E050E060E070E0CE0101960E94581277
:1016200090932C0180932B01CE0101960E945312BE
:101630006EEB70E0CE0101960E941E144AE050E06D
:1016400068E17CEFCE0101960E94581290930A0146
:1016500080930901CE0101960E94531265EB70E060
:10166000CE0101960E941E144AE050E068E17CEF32
:10167000CE0101960E9458129093080180930701B1
:10168000CE0101960E9453126CEA70E0CE010196E1
:101690000E941E144AE050E068E17CEFCE01019602
:1016A0000E9458129093060180930501CE01019685
:1016B0000E94531263EA70E0CE0101960E941E144C
:1016C0004AE050E068E17CEFCE0101960E9458129A
:1016D00090933E0180933D01CE0101960E945312EA
:1016E0006AE970E0CE0101960E941E1441E050E0CC
:1016F00060E070E0CE0101960E94581290933A018A
:1017000080933901CE0101960E94531261E970E085
:10171000CE0101960E941E1441E050E068E17CEF8A
:10172000CE0101960E945812BC01990F880B990BAB
:101730000E942624609343017093440180934501E5
:1017400090934601CE0101960E94531220E030E0B2
:1017500048EC52E46091430170914401809145014D
:10176000909146010E9409266093430170934401C1
:10177000809345019093460168E870E0CE010196A0
:101780000E941E1441E050E068E17CEFCE0101961A
:101790000E945812BC01990F880B990B0E942624B5
:1017A00060934701709348018093490190934A01E7
:1017B000CE0101960E94531220E030E048EC52E442
:1017C00060914701709148018091490190914A01CF
:1017D0000E94092660934701709348018093490154
:1017E00090934A016FE770E0CE0101960E941E14AB
:1017F00041E050E068E17CEFCE0101960E94581272
:10180000BC01990F880B990B0E94262460934B0111
:1018100070934C0180934D0190934E01CE0101963F
:101820000E94531220E030E048EC52E460914B01FA
:1018300070914C0180914D0190914E010E940926BA
:1018400060934B0170934C0180934D0190934E0136
:1018500066E770E0CE0101960E941E144AE050E057
:1018600068E17CEFCE0101960E94581290934001EE
:1018700080933F01CE0101960E9453124090430194
:1018800050904401609045017090460120E030E0A6
:10189000A901C301B2010E941F2487FDB6C0809038
:1018A000470190904801A0904901B0904A0120E082
:1018B00030E0A901C501B4010E941F2487FDA5C025
:1018C000C0904B01D0904C01E0904D01F0904E0142
:1018D00020E030E0A901C701B6010E941F2487FD66
:1018E00094C081E02091B7043091B80421303105D3
:1018F00009F080E08093D80440929D0450929E04A9
:1019000060929F047092A0048092A1049092A2041D
:10191000A092A304B092A404C092A504D092A604FD
:10192000E092A704F092A8046091CB047091CC04DB
:101930008091CD049091CE040E94242420E030E0D8
:101940004AE754E40E9409266F83788789879A873B
:101950004092A9045092AA046092AB047092AC0425
:101960009B01AC01C501B4010E9485244B015C01BF
:101970006093AD047093AE048093AF049093B00471
:101980002F81388549855A85C701B6010E940926ED
:101990006B017C016093B1047093B2048093B30433
:1019A0009093B4048091B5049091B604019769F5C1
:1019B000A301920160E070E0CB010E949C2560933E
:1019C000A9047093AA048093AB049093AC04A5017E
:1019D000940160E070E0CB010E949C256093AD040F
:1019E0007093AE048093AF049093B004A701960166
:1019F00060E070E0CB010E949C256093B10470937D
:101A0000B2048093B3049093B4048AE690E00E94F9
:101A10001C1587EE93E00E946F0D88E690E00E940F
:101A20001C150E94AC140E94AC140E94AC142A969F
:101A30000FB6F894DEBF0FBECDBFDF91CF91FF9000
:101A4000EF90DF90CF90BF90AF909F908F907F905E
:101A50006F905F904F9008950C946409CF92DF923D
:101A6000EF92FF92CF93DF93B091E004882311F0BF
:101A7000AB2F01C0A0E08091E10490E0880F991F96
:101A8000835F9D4FC090E604D090E704E090E804A7
:101A9000F090E90420E030E0FC01C591D491E881A8
:101AA000EB23A90160E070E0EA130CC02F5F3F4F09
:101AB0004C155D056E057F0578F33FEF2FEF8FEF37
:101AC0009FEF03C0322F252FCB01632F722FDF91A1
:101AD000CF91FF90EF90DF90CF90089508958F926F
:101AE0009F92AF92BF92CF92DF92EF92FF920F93AD
:101AF0001F93CF93DF93CDB7DEB7A1970FB6F894BE
:101B0000DEBF0FBECDBF6C01990FEE08FF08F7FED8
:101B10002BC06DE28AED93E00E94BC018C0122276C
:101B20003327A9012C193D094E095F0919A2CE01DD
:101B300081967C019AE0892E912CA12CB12CCA01AE
:101B4000B901A50194010E947A25605DF7016293B5
:101B50007F01211531054105510589F7CF010E940B
:101B60000815800F911F1DC0A701960119A28E01B3
:101B70000F5D1F4F8AE0C82ED12CE12CF12CCA0139
:101B8000B901A70196010E947A25605DF801629370
:101B90008F01211531054105510589F7CF010E94BB
:101BA0000815A1960FB6F894DEBF0FBECDBFDF912A
:101BB000CF911F910F91FF90EF90DF90CF90BF904A
:101BC000AF909F908F900895CF93DF9385E791E03A
:101BD0000E940815EC0183E791E00E9408158C0F24
:101BE0009D1FDF91CF9108952F923F924F925F9268
:101BF0006F927F928F929F92AF92BF92CF92DF921D
:101C0000EF92FF920F931F93CF93DF93CDB7DEB781
:101C10002E970FB6F894DEBF0FBECDBF3090D7041D
:101C2000311002C0312C44C10E9425046D837E8393
:101C30008F8398878091BF049091C004A091C104C4
:101C4000B091C2044D815E816F817885481B590B2C
:101C50006A0B7B0B8091CB049091CC04A091CD04B6
:101C6000B091CE04481759076A077B07D8F2E09174
:101C7000B904F091BA0480819181A281B3818983F2
:101C80009A83AB83BC83E091BD04F091BE049C01B8
:101C9000AD0160817181828193810E949C254B01FD
:101CA0005C012091C7043091C8044091C90450914F
:101CB000CA0469817A818B819C810E949C256B0179
:101CC0007C012091AD043091AE044091AF0450915D
:101CD000B004C501B4010E9485242091C304309151
:101CE000C4044091C5045091C6040E949D252B0157
:101CF0003C016093C3047093C4048093C504909323
:101D0000C6042090D80421101AC02091A904309153
:101D1000AA044091AB045091AC04C701B6010E94E3
:101D200085249B01AC01C301B2010E949C256093F4
:101D3000C3047093C4048093C5049093C604409078
:101D4000C3045090C4046090C5047090C604109100
:101D5000D3049091D4049E87A091D504AD870091BF
:101D6000D604212F392F4A2F502FC301B2010E94D0
:101D7000B12618162CF4812F9E85AD85B02F18C082
:101D80008091CF049091D004A091D104B091D2045D
:101D900089879A87AB87BC879C01AD01C301B201DB
:101DA0000E941F2487FF0CC089859A85AB85BC855E
:101DB0008093C3049093C404A093C504B093C60455
:101DC000222079F02091A9043091AA044091AB041B
:101DD0005091AC04C501B4010E9485244B015C0103
:101DE00003C0812C912C54012091B1043091B20494
:101DF0004091B3045091B404C701B6010E948524F8
:101E00009B01AC016091C3047091C4048091C5042E
:101E10009091C6040E949C25A50194010E949D25D5
:101E20006B017C019B01AC01612F7E858D85902F1C
:101E30000E941F2487FD18C01091CF049091D004F8
:101E40009E87A091D104AD870091D204212F392F14
:101E50004A2F502FB601C7010E941F2487FD04C0DE
:101E60001C2DDE86ED860F2DE091BB04F091BC04A5
:101E7000812F9E85AD85B02F80839183A283B3830C
:101E800089819A81AB81BC818093C7049093C804F7
:101E9000A093C904B093CA048D819E81AF81B88597
:101EA0008093BF049093C004A093C104B093C20474
:101EB000832D2E960FB6F894DEBF0FBECDBFDF91F7
:101EC000CF911F910F91FF90EF90DF90CF90BF9037
:101ED000AF909F908F907F906F905F904F903F90CA
:101EE0002F900895CF92DF92EF92FF920F931F935E
:101EF000CF93DF93CDB7DEB7C054D1400FB6F8947F
:101F0000DEBF0FBECDBF0E9425040091E2041091F8
:101F1000E3042091E4043091E5046B017C01C01AD4
:101F2000D10AE20AF30A40EDC41647E0D406E10400
:101F3000F10418F48091EA04CAC06093E20470933B
:101F4000E3048093E4049093E5041092DD0410927E
:101F5000DC041092DB041092DA041092D90462E0DF
:101F60008091DE040E94330361E070E080E090E045
:101F70000E94EB0361E08091DE040E94330360E085
:101F80008091DE040E94C1028091DF04855182307D
:101F900028F48BE291E10197F1F706C064E170E06B
:101FA00080E090E00E94EB0362E08091DE040E94FA
:101FB00033038091EB0490E08230910538F0880F74
:101FC000991F880F991F05970197F1F7F89480E002
:101FD0000E942E0D6F3F7F4F8F4F9F4F21F4109225
:101FE000EA04789441C081E00E942E0D6F3F7F4F3C
:101FF0008F4F9F4FA1F38E010F5F1F4F6E012FEB8D
:10200000C21A2EEFD20A780180E00E942E0DF7014D
:10201000608371838283938381E00E942E0DF70198
:102020006483758386839783F8E0EF0EF11CEC14CC
:10203000FD0451F7789420E030E0F801C080D180B1
:10204000E280F3804481558166817781FFEFCF166E
:10205000DF06EF06FF0631F04F3F8FEF58076807A6
:10206000780721F41092EA0480E031C0F90183E09E
:10207000F595E7958A95E1F7E752FB4F8081880F48
:10208000C416D506E606F70608F4816080832F5F44
:102090003F4F085F1F4F2832310579F62091DD044C
:1020A00030E04091D9048091DA0490E0840F911DD2
:1020B0004091DB04840F911D4091DC04840F911D3D
:1020C00099272817390771F681E08093EA04C05CEC
:1020D000DE4F0FB6F894DEBF0FBECDBFDF91CF91BC
:1020E0001F910F91FF90EF90DF90CF9008953F9256
:1020F0004F925F926F927F928F929F92AF92BF9218
:10210000CF92DF92EF92FF920F931F93CF93DF93C3
:10211000CDB7DEB72C970FB6F894DEBF0FBECDBF9C
:102120005C01DC015B968D909C905C971696CD903F
:10213000DD90ED90FC901997C114D104E104F104F5
:1021400039F0BFEFCB1ADB0AEB0AFB0A312C07C0D0
:10215000F401C080D180E280F38033243394F40111
:1021600081859285A385B4859C01AD012F5F3F4F8A
:102170004F4F5F4F29873A874B875C87260137018E
:102180001D821E821F821886F40181859285A38597
:10219000B4852D813E814F815885281739074A071C
:1021A0005B0708F063C089859A85AB85BC858C1573
:1021B0009D05AE05BF0550F482E0C82ED12CE12C60
:1021C000F12C92E0492E512C612C712C9E012F5F35
:1021D0003F4FB701A601C4010E94FA06882309F403
:1021E00045C089819A81AB81BC81892B8A2B8B2B3D
:1021F00041F0260137019FEF491A590A690A790A05
:1022000005C0C414D504E604F70491F02D813E8185
:102210004F8158852F5F3F4F4F4F5F4F2D833E8338
:102220004F8358873FEFC31AD30AE30AF30AACCFB0
:102230000FEF1FEF2FEF3FE0B301A201C4010E9497
:102240005906882399F0D50116964D915D916D91AF
:102250007C911997411551056105710549F093016C
:102260008201C4010E945906811102C080E02AC087
:10227000D50116964D925D926D927C9219973320FE
:1022800051F0D301C2010196A11DB11DF40180835B
:102290009183A283B383F5018789908DA18DB28D3F
:1022A000892B8A2B8B2B69F4D50157964D925D9221
:1022B0006D927C925A9714968C911497806814961C
:1022C0008C9381E02C960FB6F894DEBF0FBECDBF85
:1022D000DF91CF911F910F91FF90EF90DF90CF9002
:1022E000BF90AF909F908F907F906F905F904F9036
:1022F0003F9008950F931F93CF93DF93EC01888154
:102300009981009729F02A813B812617370788F4A5
:102310008B016F5F7F4F0E940528009761F09983C2
:1023200088831B830A832C813D81232B11F4FC01BC
:10233000108281E001C080E0DF91CF911F910F9169
:102340000895EF92FF920F931F93CF93DF93611540
:10235000710511F480E01FC0FB0101900020E9F736
:102360003197E61BF70BB1F07B01EC010C811D816D
:102370000E0F1F1FB8010E947A11882359F328817C
:1023800039818C819D81B701820F931F0E94E228C1
:102390001D830C8381E0DF91CF911F910F91FF90FE
:1023A000EF900895CF93DF93EC0188819981009796
:1023B00011F00E947C27198218821D821C821B82C8
:1023C0001A82DF91CF910895EF92FF920F931F939E
:1023D000CF93DF938C017B016115710569F0FB01DF
:1023E00001900020E9F73197EF01C61BD70BBE0122
:1023F0000E947A11811104C0C8010E94D21108C044
:10240000F801D583C483B701808191810E94E228BD
:10241000C801DF91CF911F910F91FF90EF90089528
:10242000BF92CF92DF92EF92FF920F931F93CF93C1
:10243000DF937C016B018A01E9012417350720F441
:10244000812F8901C42FD82FC7010E94EA14D60119
:1024500014968D919C91159708171907C8F48C173D
:102460009D0708F4EC01D601ED91FC911197EC0F5A
:10247000FD1FB08010826D917C91600F711FC701AC
:102480000E94E411D601ED91FC91EC0FFD1FB0828A
:10249000C701DF91CF911F910F91FF90EF90DF90D7
:1024A000CF90BF900895FC01808191810C947C278E
:1024B0004F925F926F927F928F929F92AF92BF9254
:1024C000CF92DF92EF92FF920F931F93CF93DF9300
:1024D000CDB7DEB7E0970FB6F894DEBF0FBECDBF25
:1024E0007C016B015A01CE0189960E94EA14CE014B
:1024F00083960E94EA14CE014D960E94EA14CE0102
:1025000047960E94EA1422E030E040E050E0B70134
:10251000CE010B960E941012BE01655F7F4FCE0167
:1025200083960E94B114CE010B960E94531289E14A
:1025300092E00E941C15F7014481558160817181F0
:102540008AED93E00E94371587E192E00E941C1506
:102550000E94AC140E94AC140E94AC14CE014196AF
:102560000E94EA1466E771E0CE0141960E94A11133
:102570006091870470918804CE0141960E94A11158
:102580006BE771E0CE0141960E94A11109891A8979
:102590008AED93E00E948401892B29F08AED93E073
:1025A0000E946201F5CFC8010E941A150E94AC1466
:1025B0000E94AC140E94AC14CE010B960E94EA1447
:1025C0000E9425042B013C0110E000E00E9425043C
:1025D000DC01CB0184199509A609B7098536910557
:1025E000A105B10550F14F8558894B30510510F0C8
:1025F0004AE050E06B857C85CE0101960E94E92877
:10260000CE010B960E945312CE0141960E945312A6
:10261000BE016F5F7F4FCE0189960E94E4118DA4A9
:102620009EA43BC08AED93E00E946201002341F129
:102630008F3F51F41F5F1330B0F68AED93E00E9494
:102640008401892B79F721C08FA718AA8F849888D5
:10265000FFEF8F1A9F0AB401CE010B960E947A11E8
:10266000882359F32B853C858F859889BE01615D50
:102670007F4F820F931F0E94E228988A8F86DDCFBA
:1026800001E08037D1F200E0D8CF133008F49ECFBC
:10269000AACF01151105E1F14801940140E050E095
:1026A000BE01675D7F4FCE010B960E941012BE01E6
:1026B000655F7F4FCE0189960E94B114CE010B96C3
:1026C0000E9453129401A40142505109BE01675D5A
:1026D0007F4FCE010B960E941012BE01655F7F4FA7
:1026E000CE0147960E94B114CE010B960E94531260
:1026F0008401015011098B8D9C8D892B51F260E86A
:1027000071E08F89988D0E94D928892B11F6840158
:1027100022E030E040E050E0BE01675D7F4FCE0137
:102720000B960E941012BE01655F7F4FCE014D9641
:102730000E94B114CE010B960E9453122FA138A50E
:1027400089A19AA12817390709F0DDCE8BA19CA198
:102750006D8D7E8D009719F061157105A1F46115DD
:10276000710549F0232BA1F0FB01808190E0919548
:10277000819591090AC0009759F0232B49F0FC017B
:10278000808190E002C00E94D928892B09F0BBCE3D
:10279000101611060CF0B7CE98012250310942E014
:1027A00050E0BE01675D7F4FCE010B960E94101274
:1027B000BE01655F7F4FCE0147960E94B114CE01E6
:1027C0000B960E9453128F89988D009719F00E94E2
:1027D000D32303C060E070E0CB016C0D7D1D6A9DCA
:1027E00080016B9D100D7A9D100D1124CE0147962E
:1027F0000E945312CE014D960E945312CE01839631
:102800000E945312CE0189960E945312C801E0968D
:102810000FB6F894DEBF0FBECDBFDF91CF911F91F1
:102820000F91FF90EF90DF90CF90BF90AF909F906F
:102830008F907F906F905F904F900895EF92FF92EE
:102840000F931F93CF93DF93EC01198218821B82A1
:102850001A821D821C826115710509F18B01CB0161
:102860000E9401247C01BC01CE010E947A118111D9
:1028700009C0CE01DF91CF911F910F91FF90EF9092
:102880000C94D211FD82EC82B80188819981DF918C
:10289000CF911F910F91FF90EF900C94FA23DF914D
:1028A000CF911F910F91FF90EF900895CF93DF93F9
:1028B000EC018091D704882309F447C08091B504C6
:1028C0009091B6048C179D0709F43FC02091A9048C
:1028D0003091AA044091AB045091AC0460E070E0E8
:1028E000CB010E949C256093A9047093AA04809355
:1028F000AB049093AC042091AD043091AE044091B0
:10290000AF045091B00460E070E0CB010E949C25C0
:102910006093AD047093AE048093AF049093B004C1
:102920002091B1043091B2044091B3045091B404A9
:1029300060E070E0CB010E949C256093B10470932D
:10294000B2048093B3049093B404D093B604C093BC
:10295000B504DF91CF9108956FEF8AED93E00C9469
:10296000BC010F931F93CF93DF938C01EB01FC010C
:10297000808191810097B1F068817981611571053D
:1029800079F0428153812C813D814217530740F0F9
:102990000E94E2288C819D81F8019583848313C075
:1029A0000E947C2788819981F801918380838A81A4
:1029B0009B81938382838C819D81958384831982FB
:1029C00018821B821A821D821C82DF91CF911F9177
:1029D0000F910895CF93DF93EC01198218821B8227
:1029E0001A821D821C8260E070E00E947A118111BF
:1029F00005C0CE01DF91CF910C94D2111D821C82B3
:102A000065E771E088819981DF91CF910C94E2288C
:102A1000009769F0FC0101900020E9F73197AF01C0
:102A2000481B590BBC018AED93E00C94371580E0EC
:102A300090E008950C9408150F931F93CF93DF93A4
:102A40008C01C0E0D0E0F801EC0FFD1F649166231B
:102A500041F08AED93E00E94BC01892B11F0219690
:102A6000F2CFCE01DF91CF911F910F910895CF92B8
:102A7000DF92EF92FF920F931F93CF93DF936C013E
:102A80007A018B01C0E0D0E0CE15DF0581F0D801DE
:102A90006D918D01D601ED91FC910190F081E02DB9
:102AA000C6010995892B11F02196EECF7E01C70151
:102AB000DF91CF911F910F91FF90EF90DF90CF901A
:102AC0000895CF93DF93CDB7DEB72C970FB6F89468
:102AD000DEBF0FBECDBF789484B5826084BD84B55F
:102AE000816084BD85B5826085BD85B5816085BD09
:102AF00080916E00816080936E00109281008091C1
:102B00008100826080938100809181008160809348
:102B10008100809180008160809380008091B1006D
:102B200084608093B1008091B00081608093B00098
:102B300080917A00846080937A0080917A0082602C
:102B400080937A0080917A00816080937A008091EE
:102B50007A00806880937A001092C10061E085E07D
:102B60000E94330361E086E00E94330360E070E07E
:102B70008091BF030E946F0360E070E08091C60304
:102B80000E946F0361E083E00E94330361E084E010
:102B90000E94330361E087E00E94330361E084E038
:102BA0000E94C10260E087E00E94C1028CE29DE0C9
:102BB0009093820480938104109284041092830481
:102BC00084E690E0A0E0B0E08093DE039093DF0322
:102BD000A093E003B093E1038091D704811148C032
:102BE000E091BB04F091BC04C080D180E280F3800E
:102BF000C092C304D092C404E092C504F092C6040B
:102C0000E091B904F091BA0480819181A281B381ED
:102C10008093C7049093C804A093C904B093CA04D6
:102C20008090D3049090D404A090D504B090D604A2
:102C3000A5019401C701B6010E94B126181684F0BF
:102C40008090CF049090D004A090D104B090D20492
:102C5000A5019401C701B6010E941F2487FF08C087
:102C60008092C3049092C404A092C504B092C6049A
:102C700081E08093D704E091EA03F091EB0382E0D6
:102C80008083E091E603F091E7031082E091E8038E
:102C9000F091E90380E180831092F203E091EE036A
:102CA000F091EF0386E08083E091EC03F091ED0377
:102CB000808180618083E091EC03F091ED0380815D
:102CC00088608083E091EC03F091ED03808180685F
:102CD0008083E091EC03F091ED0380818F7D808310
:102CE0001092040162E08091DE040E9433030E948E
:102CF0002504DC01CB01805D9740A109B1098093D7
:102D0000E2049093E304A093E404B093E50487E322
:102D10008093EB040E9464093AE0232E312C209129
:102D20004101309142013A8329833093D9032093A2
:102D3000D8030E9425040E9424242091D4033091BA
:102D4000D5034091D6035091D7030E94B12687FD49
:102D500097C385E10E94CE0361E070E080E090E0DF
:102D60000E94EB0384E10E94CE03BC01990F880B03
:102D7000990B0E9426246B017C0184E10E94CE0302
:102D8000BC01990F880B990B0E942624A70196017C
:102D90000E949D256B017C0184E10E94CE03BC0151
:102DA000990F880B990B0E942624A70196010E9477
:102DB0009D256B017C0184E10E94CE03BC01990F2B
:102DC000880B990B0E942624A70196010E949D253D
:102DD0006B017C0184E10E94CE03BC01990F880B3A
:102DE000990B0E942624A70196010E949D256B0144
:102DF0007C0184E10E94CE03BC01990F880B990BE2
:102E00000E942624A70196010E949D256B017C014A
:102E100084E10E94CE03BC01990F880B990B0E949C
:102E20002624A70196010E949D256B017C0184E167
:102E30000E94CE03BC01990F880B990B0E94262497
:102E4000A70196010E949D256B017C0184E10E94EF
:102E5000CE03BC01990F880B990B0E942624A70171
:102E600096010E949D256B017C0184E10E94CE03A6
:102E7000BC01990F880B990B0E942624A70196018B
:102E80000E949D256B017C0120E030E0A90160914A
:102E9000AB037091AC038091AD039091AE030E949F
:102EA0001F24811110C020E030E040E251E4C7014E
:102EB000B6010E9485246093AB037093AC038093AA
:102EC000AD039093AE0320E030E040E251E4609126
:102ED000AB037091AC038091AD039091AE030E945F
:102EE000092620E030E040E151E40E948524A7015A
:102EF00096010E949D256093AB037093AC03809371
:102F0000AD039093AE0320E030E040E251E40E9434
:102F1000092620E030E048EC52E40E94852423E3B7
:102F200033E343E550E40E94852420E030E040E8AC
:102F30005AE30E94852420E030E048EC52E40E94ED
:102F4000852420E030E543E457E40E949C2520E0FE
:102F500030E040E251E40E9409266B017C010091BF
:102F6000390110913A010B301105A1F420E030E055
:102F700040E151E40E94852420E030E040EA50E442
:102F80000E94092620E030E040E052E40E949D25A6
:102F90006B017C016091090170910A01072E000C00
:102FA000880B990B0E942624A70196010E949D255B
:102FB0000E947B26709338016093370183E10E9461
:102FC000CE0361E070E080E090E00E94EB0383E1DB
:102FD0000E94CE03BC01990F880B990B0E942624F6
:102FE0006B017C0183E10E94CE03BC01990F880B29
:102FF000990B0E942624A70196010E949D256B0132
:103000007C0183E10E94CE03BC01990F880B990BD0
:103010000E942624A70196010E949D256B017C0138
:1030200083E10E94CE03BC01990F880B990B0E948B
:103030002624A70196010E949D256B017C0183E156
:103040000E94CE03BC01990F880B990B0E94262485
:10305000A70196010E949D256B017C0183E10E94DE
:10306000CE03BC01990F880B990B0E942624A7015F
:1030700096010E949D256B017C0183E10E94CE0395
:10308000BC01990F880B990B0E942624A701960179
:103090000E949D256B017C0183E10E94CE03BC014F
:1030A000990F880B990B0E942624A70196010E9474
:1030B0009D256B017C0183E10E94CE03BC01990F29
:1030C000880B990B0E942624A70196010E949D253A
:1030D0006B017C0183E10E94CE03BC01990F880B38
:1030E000990B0E942624A70196010E949D256B0141
:1030F0007C0120E030E0A9016091A7037091A80352
:103100008091A9039091AA030E941F24811110C0ED
:1031100020E030E040E251E4C701B6010E9485247E
:103120006093A7037093A8038093A9039093AA03C5
:1031300020E030E040E251E46091A7037091A803E1
:103140008091A9039091AA030E94092620E030E013
:1031500040E151E40E948524A70196010E949D252B
:103160006093A7037093A8038093A9039093AA0385
:1031700020E030E040E251E40E94092620E030E007
:1031800048EC52E40E94852423E333E343E550E412
:103190000E94852420E030E040E85AE30E94852424
:1031A00020E030E048EC52E40E94852420E030E545
:1031B00043E457E40E949C2520E030E040E251E4E3
:1031C0000E9409260E947B260B30110569F449E014
:1031D000469F9001479F300D1124C90165E070E0C2
:1031E0000E94B626605E7F4F709336016093350172
:1031F00020913501309136018091070190910801AD
:10320000820F931F909336018093350185E10E94D0
:10321000CE0361E070E080E090E00E94EB0382E189
:103220000E94CE03BC01990F880B990B0E942624A3
:103230006B017C0182E10E94CE03BC01990F880BD7
:10324000990B0E942624A70196010E949D256B01DF
:103250007C0182E10E94CE03BC01990F880B990B7F
:103260000E942624A70196010E949D256B017C01E6
:1032700082E10E94CE03BC01990F880B990B0E943A
:103280002624A70196010E949D256B017C0182E105
:103290000E94CE03BC01990F880B990B0E94262433
:1032A000A70196010E949D256B017C0182E10E948D
:1032B000CE03BC01990F880B990B0E942624A7010D
:1032C00096010E949D256B017C0182E10E94CE0344
:1032D000BC01990F880B990B0E942624A701960127
:1032E0000E949D256B017C0182E10E94CE03BC01FE
:1032F000990F880B990B0E942624A70196010E9422
:103300009D256B017C0182E10E94CE03BC01990FD7
:10331000880B990B0E942624A70196010E949D25E7
:103320006B017C0182E10E94CE03BC01990F880BE6
:10333000990B0E942624A70196010E949D256B01EE
:103340007C0120E030E0A9016091A3037091A40307
:103350008091A5039091A6030E941F24811110C0A3
:1033600020E030E040E251E4C701B6010E9485242C
:103370006093A3037093A4038093A5039093A60383
:1033800020E030E040E251E46091A3037091A40397
:103390008091A5039091A6030E94092620E030E0C9
:1033A00040E151E40E948524A70196010E949D25D9
:1033B0006093A3037093A4038093A5039093A60343
:1033C00020E030E040E251E40E94092620E030E0B5
:1033D00048EC52E40E94852423E333E343E550E4C0
:1033E0000E94852420E030E040E85AE30E948524D2
:1033F00020E030E048EC52E40E94852420E030E5F3
:1034000043E457E40E949C2520E030E040E251E490
:103410000E9409260E947B260B30110569F459E0B1
:10342000569F9001579F300D1124C90165E070E04F
:103430000E94B626605E7F4F70932E0160932D012F
:1034400020912D0130912E0180910501909106016E
:10345000820F931F90932E0180932D010E942504CB
:103460000E94242420E030E048EC52E40E949D2594
:103470006093D4037093D5038093D6039093D703BE
:103480000E9425040E9424242091D0033091D1036E
:103490004091D2035091D3030E94B12618160CF02C
:1034A000EAC10E94720F8823D1F18091DF048B3032
:1034B000B0F18D30A8F08551823088F56091D90443
:1034C0007091DA0476276727762780E090E00E94E3
:1034D00024242DEC3CEC4CEC5DE30E9485241CC0C4
:1034E0006091DA0470E080E090E00E9426242DECE8
:1034F0003CEC4CEC5DE30E9485246B017C01609107
:10350000D90470E080E090E00E9426249B01AC0189
:10351000C701B6010E949D256B017C0106C0C12C2C
:10352000D12C20ECE22E2FE7F22E80913F019091DA
:10353000400164E670E00E94B626072E000C880B5E
:10354000990B0E942624A70196010E949D256B01DC
:103550007C0120E030E040E251E40E9485240E949A
:103560007B267093CF036093CE030E94720F882353
:1035700009F474C08091DF048C3009F448C018F459
:103580008B30D1F06BC08551823008F067C010914C
:10359000DB04612F6F7770E0762F66278091DC0463
:1035A000682B80E090E00E9424242DEC3CEC4CEC55
:1035B0005DE30E94852449C06091DB0470E080E0F7
:1035C00090E00E9424244B015C011091DC0417FF61
:1035D0000AC09B01AC0160E070E080E89FEB0E94B4
:1035E0009C254B015C01612F6F7070E080E090E0E2
:1035F0000E9426242DEC3CEC4CEC5DE30E948524DB
:10360000A50194010E949D254B015C012DC01091E4
:10361000DB046091DC046F7070E080E090E00E9459
:1036200026242DEC3CEC4CEC5DE30E9485244B0100
:103630005C01612F70E080E090E00E9424249B01F7
:10364000AC01C501B4010E949D254B015C0117FF2F
:103650000BC0B7FAB094B7F8B09406C0812C912C87
:1036600080ECA82E8FE7B82E80913D0190913E010D
:1036700064E670E00E94B626072E000C880B990BBA
:103680000E942624A50194010E949D252B013C0146
:103690002AE037ED43E25CE3C701B6010E948524CE
:1036A0009B01AC0160E070E080E89FE30E949C25F4
:1036B0006B017C0122E430E645EE5BE3C301B2011D
:1036C0000E94852420E030E040E250E40E949D25E5
:1036D000A70196010E9485244B015C0125ED38E786
:1036E00049EE5DE3C301B2010E9485242DEC3CEC60
:1036F00048E651E40E949D25A70196010E94852479
:103700009B01AC01C301B2010E949C256B837C83A9
:103710008D839E83A5019401C501B4010E94852477
:10372000A50194010E9485249B01AC016B817C81E1
:103730008D819E810E949C254B015C0122EB3DE91D
:103740004FEE5DE3C301B2010E94852426E636E612
:103750004EE751E40E949D25A70196010E94852411
:10376000A70196010E948524A70196010E94852445
:10377000A70196010E948524A70196010E94852435
:10378000A70196010E948524A70196010E94852425
:10379000A70196010E948524A70196010E94852415
:1037A000A70196010E948524A70196010E94852405
:1037B000A70196010E948524A70196010E948524F5
:1037C000A70196010E9485249B01AC01C501B401AB
:1037D0000E949C250E947B26E4E6E69F9001E79FDD
:1037E000300D112430933C0120933B0100913901AD
:1037F00010913A010B30110581F4F9E0F29FC001FC
:10380000F39F900D112465E070E00E94B626605E83
:103810007F4F70933C0160933B0120E030E048EC27
:1038200052E4C301B2010E9485240E947B260B3022
:10383000110569F449E0469F9001479F300D11241E
:10384000C90165E070E00E94B626605E7F4F70930C
:10385000CD036093CC030E9425046053784F8F4FB3
:103860009F4F0E9424246093D0037093D1038093D0
:10387000D2039093D303E0903701F0903801C090C9
:103880003501D0903601CE14DF042CF0D0923401F3
:10389000C092330104C0F0923401E0923301809170
:1038A0003101909132010A97029708F00AC3809182
:1038B0001B0190911C010B9709F0EDC080910B0149
:1038C00090910C010B9761F56091170170911801AF
:1038D000072E000C880B990B0E94262420E030E074
:1038E0004FE753E40E94852420E030E048EC52E4A6
:1038F0000E94092620E030E0A9010E949D250E9437
:103900007B2683E00E946F0368EE73E080E090E026
:103910000E94EB0381E090E090930C0180930B01F7
:103920006091130170911401072E000C880B990B04
:103930000E9426242B013C018091170190911801CF
:103940009C838B830091150110911601B801012E03
:10395000000C880B990B0E9426244B015C0160919E
:10396000330170913401072E000C880B990B0E94D3
:103970002624A30192010E949C2520E030E048EC1F
:1039800052E40E94852469877A878B879C8760919F
:10399000110170911201072E000C880B990B0E94E7
:1039A0002624A30192010E949C259B01AC016985FC
:1039B0007A858B859C850E94092620E030E0A9014C
:1039C0000E949D250E947B26072E000C880B990BD8
:1039D0000E9426242B013C01EB81FC81BF01FF0FDB
:1039E000880B990B0E942624A50194010E949C2516
:1039F0009B01AC01C301B2010E94852420E030E0AC
:103A000048EC52E40E940926A50194010E949D25DC
:103A10000E947B26061717070CF48B016B817C81B3
:103A2000061717070CF4B801072E000C880B990B2A
:103A30000E94262420E030E04FE753E40E948524D2
:103A400020E030E048EC52E40E94092620E030E01B
:103A5000A9010E949D250E947B2677FD05C07093D9
:103A6000BE036093BD0304C01092BE031092BD0359
:103A70008091BD039091BE038F3F910539F034F0E2
:103A80002FEF30E03093BE032093BD036091BD0360
:103A90007091BE0321C06091190170911A01072E27
:103AA000000C880B990B0E94262420E030E04FE7A1
:103AB00053E40E94852420E030E048EC52E40E9468
:103AC000092620E030E0A9010E949D250E947B2666
:103AD0007093BE036093BD0383E00E946F038091E7
:103AE0002F01909130018A30910529F4F092CB0397
:103AF000E092CA031AC08B30910529F4D092CB030F
:103B0000C092CA0312C08C30910529F480912D0116
:103B100090912E0106C00D9741F48091CC039091B5
:103B2000CD039093CB038093CA0380912B01909196
:103B30002C010B97D9F420913B0130913C018091ED
:103B4000290190912A01820F931F49815A8184177C
:103B500095072CF09093D9038093D80311C0E98185
:103B6000FA81F093D903E093D8030AC029813A81FE
:103B70003093D9032093D803809127019091280195
:103B80009093C9038093C803E091260120913501E9
:103B90003091360140913701509138018091C8032E
:103BA0009091C9036091240170912501EE23F9F0F1
:103BB0008417950764F0841B950B4091CA035091BC
:103BC000CB03840F951F9093D9038093D8032617B6
:103BD000370764F1261B370B8091CA039091CB0302
:103BE000280F391F3093D9032093D8031FC04617DD
:103BF000570764F0461B570B6091CA037091CB03C3
:103C0000641B750B7093D9036093D80382179307D5
:103C10006CF0821B930B2091CA033091CB03A90156
:103C2000481B590B5093D9034093D803809122012C
:103C3000909123018A30910509F079C040912101CA
:103C40008091CA039091CB032091D8033091D9037E
:103C5000442359F0821793071CF41092260103C0E5
:103C600051E05093260110922101409126014423F6
:103C700021F144968217930724F58091C603909111
:103C8000C703892BF1F48091C503811104C081E041
:103C90008093C50326C00E9425040E9424242091FD
:103CA000C1033091C2034091C3035091C4030E94E9
:103CB000B12618160CF08BC044C04497281739075A
:103CC0001CF01092C50383C08091BF039091C00384
:103CD000892BB9F78091C503811114C091E09093AD
:103CE000C5030E942504605D7A488F4F9F4F0E9454
:103CF00024246093C1037093C2038093C303909301
:103D0000C40365C00E9425040E9424242091C1039D
:103D10003091C2034091C3035091C4030E94B12665
:103D200018160CF054C0E1E0E093260150C08B302F
:103D3000910521F4F1E0F093260149C08C30910502
:103D400019F41092260143C00D9709F040C020914C
:103D50001F0130912001B901032E000C880B990B33
:103D6000121613060CF080C2109226011092C7039F
:103D70001092C6030E94262420E030E04FE753E46F
:103D80000E94852420E030E048EC52E40E9409269D
:103D900020E030E0A9010E949D250E947B267093BF
:103DA000C0036093BF036091BF037091C00386E0BE
:103DB0000E946F0361E070E080E090E00E94EB03FE
:103DC0006091C6037091C70385E00E946F03609104
:103DD000CA037091CB03072E000C880B990B0E942D
:103DE00026246093990470939A0480939B04909383
:103DF0009C0420912601809122019091230122238D
:103E000009F45AC20D9709F46BC081E090E00E945A
:103E100056146091D8037091D903072E000C880BBB
:103E2000990B0E94262460939104709392048093CE
:103E30009304909394040E94F40D60911D0170917D
:103E40001E0164567109072E000C880B990B0E9405
:103E500026246B017C0120919504309196044091B9
:103E60009704509198040E941F2487FF08C0C092B5
:103E70009504D0929604E0929704F0929804609191
:103E800095047091960480919704909198040E94F3
:103E90007B266B017C017093C7036093C60310926D
:103EA000C0031092BF0360E070E086E00E946F03E1
:103EB00061E070E080E090E00E94EB03B60185E0F5
:103EC0000DC060E070E086E00E946F0360E070E08B
:103ED00085E00E946F0360E070E083E00E946F0362
:103EE0000E9425040E9424242091B9033091BA0332
:103EF0004091BB035091BC030E94B12687FD5FC176
:103F000080E092E00E941C15809137019091380169
:103F1000B1010E94B626CB0188519C4F0E946F0DC3
:103F20008EEF91E00E941C150E94AC140E94AC140C
:103F30000E94AC1481EF91E00E941C158091350124
:103F400090913601B1010E94B626CB0188519C4F59
:103F50000E946F0D8FEE91E00E941C150E94AC1420
:103F60000E94AC140E94AC1482EE91E00E941C15D9
:103F70008091CC039091CD03B1010E94B626CB0174
:103F800088519C4F0E946F0D80EE91E00E941C159D
:103F90000E94AC140E94AC140E94AC1483ED91E01A
:103FA0000E941C1580912D0190912E01B1010E945B
:103FB000B626CB0188519C4F0E946F0D81ED91E098
:103FC0000E941C150E94AC140E94AC140E94AC14F8
:103FD00084EC91E00E941C158091CE039091CF0358
:103FE00088519C4F0E946F0D82EC91E00E941C153D
:103FF0000E94AC140E94AC140E94AC1485EB91E0BA
:104000000E941C1580913B0190913C01B1010E94DE
:10401000B626CB0188519C4F0E946F0D83EB91E037
:104020000E941C150E94AC140E94AC140E94AC1497
:1040300080913101909132010A97029708F089C06E
:1040400080912201909123018A30910519F00D97FA
:1040500009F042C06091BF037091C003072E000CAD
:10406000880B990B0E94262420E030E04AE754E4B4
:104070000E94852420E030E04FE753E40E940926A7
:1040800020E030E0A9010E949D250E947B268B0143
:1040900008511C4F6091C6037091C703072E000C96
:1040A000880B990B0E94262420E030E04AE754E474
:1040B0000E94852420E030E04FE753E40E94092667
:1040C00020E030E0A9010E949D250E947B26A801E6
:1040D000461B570B58874F8386EA91E00E941C15B8
:1040E0008F8198850E946F0D84EA91E00E941C15D3
:1040F0000E94AC140E94AC140E94AC146091BD03E9
:104100007091BE03072E000C880B990B0E94262489
:1041100020E030E04AE754E40E94852420E030E0CB
:104120004FE753E40E94092620E030E0A9010E94F5
:104130009D250E947B266B017C0187E991E00E940E
:104140001C15C60188519C4F0E946F0D85E991E0B6
:104150001CC088E891E00E941C1588EE93E00E9444
:104160006F0D86E891E00E941C150E94AC140E941D
:10417000AC140E94AC1489E791E00E941C1588EEF3
:1041800093E00E946F0D87E791E00E941C150E944A
:10419000AC140E94AC140E94AC140E9425040E942E
:1041A000242420E030E04AE754E40E949D256093F7
:1041B000B9037093BA038093BB039093BC038AED59
:1041C00093E00E948401181619060CF049C06AE0B9
:1041D00070E080E090E00E94EB038AED93E00E94A3
:1041E0006201182F853659F78AED93E00E94840109
:1041F00006972CF31093AF0300EB13E08AED93E0E6
:104200000E946201F80181938F01F3E0063B1F07D2
:10421000A9F71092B6038091B3038F3F81F6809186
:10422000B4038F3F61F68091B5038F3F41F6409113
:10423000B20350E060E070E09091B1032091B003D0
:10424000EDE0F1E0A191B191109709F4B8CF8C9114
:104250002813F8CF11968C9111979813F3CF8BC038
:104260000E942B020C948F1621E0209326010E94BD
:10427000262420E030E048EC52E40E949D2520E016
:1042800030E04FE753EC0E94852420E030E048EC1A
:1042900052E40E94092620E030E04FE753E40E94F8
:1042A0009D250E947B267093C7036093C6031092DE
:1042B000C0031092BF0377CD0D9709F411CE80E0B3
:1042C00090E00E9456146091D8037091D903072E94
:1042D000000C880B990B0E94262460939104709324
:1042E000920480939304909394040E94F40D60913F
:1042F0001D0170911E0164567109072E000C880B78
:10430000990B0E9426246B017C0120919504309129
:10431000960440919704509198040E941F2487FFAF
:1043200008C0C0929504D0929604E0929704F0924F
:1043300098041092C7031092C6036091950470917F
:10434000960480919704909198040E947B266B01BB
:104350007C017093C0036093BF0360E070E085E070
:104360000E946F0361E070E080E090E00E94EB0348
:10437000B60186E0B3CD413051056105710561F4A8
:104380001496ED91FC911597309709F418CF169675
:104390008D919C91179710C0452B462B472B09F008
:1043A0000ECF1896ED91FC911997309709F407CF2D
:1043B0001A968D919C911B97099501CF4F925F9210
:1043C0006F927F928F929F92AF92BF92CF92DF9225
:1043D000EF92FF92CF93DF9300D000D0CDB7DEB73E
:1043E0001092DD031092DC0388EE93E0A0E0B0E0D1
:1043F0008093DE039093DF03A093E003B093E10387
:1044000089E591E09093DB038093DA0385EC90E0FB
:104410009093E7038093E60384EC90E09093E903A4
:104420008093E80380EC90E09093EB038093EA03A1
:1044300081EC90E09093ED038093EC0382EC90E0AC
:104440009093EF038093EE0386EC90E09093F1035A
:104450008093F0031092F3031092F4031092F5038B
:104460001092F60380E580937704109278041092FE
:10447000F1041092F2041092F5041092F70482E015
:1044800090E0A0E0B0E08093F8049093F904A0934A
:10449000FA04B093FB0410920F05109219051092C4
:1044A00018058BE691E090931705809316051092FE
:1044B0001B0582E08093DE0486E18093DF04EEE357
:1044C000F2E0E491E093E004EAE2F2E0E491E093C8
:1044D000E10480E89EE3A0E0B0E08093E6049093DE
:1044E000E704A093E804B093E904C0904B01D09096
:1044F0004C01E0904D01F0904E018090470190906A
:104500004801A0904901B0904A0140904301509069
:104510004401609045017090460185E994E09093D4
:10452000BC048093BB0489E994E09093BA0480931F
:10453000B90481E994E09093BE048093BD04109285
:10454000D7041092CF041092D0041092D10410928C
:10455000D20480E090E0AFE7B3E48093D30490937B
:10456000D404A093D504B093D60484E690E0A0E0F0
:10457000B0E08093CB049093CC04A093CD04B0938F
:10458000CE0480E090E00E94561420E030E0A901C3
:10459000C301B2010E941F2487FDA3C020E030E0C8
:1045A000A901C501B4010E941F2487FD9AC020E023
:1045B00030E0A901C701B6010E941F2487FD91C008
:1045C00081E090E09093B8048093B7048093D8047E
:1045D00040929D0450929E0460929F047092A004A9
:1045E0008092A1049092A204A092A304B092A40489
:1045F000C092A504D092A604E092A704F092A80469
:104600006091CB047091CC048091CD049091CE0444
:104610000E94242420E030E04AE754E40E94092666
:1046200069837A838B839C834092A9045092AA0465
:104630006092AB047092AC049B01AC01C501B40163
:104640000E9485244B015C016093AD047093AE041D
:104650008093AF049093B00429813A814B815C81AF
:10466000C701B6010E9409266B017C016093B10469
:104670007093B2048093B3049093B4048091B50412
:104680009091B604019769F5A301920160E070E092
:10469000CB010E949C256093A9047093AA04809387
:1046A000AB049093AC04A501940160E070E0CB01F1
:1046B0000E949C256093AD047093AE048093AF0478
:1046C0009093B004A701960160E070E0CB010E94D6
:1046D0009C256093B1047093B2048093B3049093CB
:1046E000B4040E942504C090CB04D090CC04E09088
:1046F000CD04F090CE04DC01CB018C199D09AE09EC
:10470000BF098093BF049093C004A093C104B093E9
:10471000C20485E0809385049EE09093860423E89C
:1047200031E0309388042093870410928A04109219
:10473000890410928E0410928D04109290041092AD
:104740008F0410928C0410928B0496E0909379045D
:1047500080937A048EE891E090937C0480937B04AC
:1047600010927E0410927D041092820410928104B3
:1047700010928404109283041092800410927F049B
:104780000F900F900F900F90DF91CF91FF90EF90CF
:10479000DF90CF90BF90AF909F908F907F906F9061
:1047A0005F904F9008951F93FC0199278827BC01C3
:1047B000E89411911032E9F3193010F01E30C8F36B
:1047C0001B3251F01D3249F4689406C00E940A243D
:1047D000610F711D811D911D119110531A30B0F39D
:1047E0003EF490958095709561957F4F8F4F9F4FC8
:1047F0001F910895FB01DC0105900D920020E1F767
:104800000895FC0105900020E9F7809590958E0FA2
:104810009F1F0895592F482F372F262F660F771F78
:10482000881F991F660F771F881F991F620F731FBC
:10483000841F951F660F771F881F991F08950E9478
:10484000612408F481E00895E89409C097FB3EF4E0
:1048500090958095709561957F4F8F4F9F4F9923CD
:10486000A9F0F92F96E9BB279395F695879577954B
:104870006795B795F111F8CFFAF4BB0F11F460FF0B
:104880001BC06F5F7F4F8F4F9F4F16C0882311F063
:1048900096E911C0772321F09EE8872F762F05C077
:1048A000662371F096E8862F70E060E02AF09A9512
:1048B000660F771F881FDAF7880F9695879597F907
:1048C0000895990F0008550FAA0BE0E8FEEF1616A1
:1048D0001706E807F907C0F012161306E407F507F4
:1048E00098F0621B730B840B950B39F40A2661F068
:1048F000232B242B252B21F408950A2609F4A1400B
:10490000A6958FEF811D811D08950E9498240C9417
:1049100009250E94FB2438F00E94022520F09523EF
:1049200011F00C94F2240C94F82411240C943D25DD
:104930000E941A2570F3959FC1F3950F50E0551F03
:10494000629FF001729FBB27F00DB11D639FAA27E4
:10495000F00DB11DAA1F649F6627B00DA11D661F33
:10496000829F2227B00DA11D621F739FB00DA11D54
:10497000621F839FA00D611D221F749F3327A00D0E
:10498000611D231F849F600D211D822F762F6A2FAA
:1049900011249F5750409AF0F1F088234AF0EE0F0F
:1049A000FF1FBB1F661F771F881F91505040A9F73C
:1049B0009E3F510580F00C94F2240C943D255F3FFE
:1049C000E4F3983ED4F3869577956795B795F79578
:1049D000E7959F5FC1F7FE2B880F911D96958795F0
:1049E00097F9089597F99F6780E870E060E008956F
:1049F0009FEF80EC089500240A94161617061806F7
:104A00000906089500240A941216130614060506D2
:104A10000895092E0394000C11F4882352F0BB0F63
:104A200040F4BF2B11F460FF04C06F5F7F4F8F4FC6
:104A30009F4F089557FD9058440F551F59F05F3F01
:104A400071F04795880F97FB991F61F09F3F79F0B0
:104A500087950895121613061406551FF2CF469532
:104A6000F1DF08C0161617061806991FF1CF8695B4
:104A70007105610508940895E894BB276627772798
:104A8000CB0197F908952F923F924F925F926F92C8
:104A90007F928F929F92AF92BF92CF92DF92EF92CE
:104AA000FF920F931F93CF93DF93CDB7DEB7CA1B4F
:104AB000DB0B0FB6F894DEBF0FBECDBF09942A887A
:104AC000398848885F846E847D848C849B84AA8422
:104AD000B984C884DF80EE80FD800C811B81AA81AF
:104AE000B981CE0FD11D0FB6F894DEBF0FBECDBF7A
:104AF000ED010895A1E21A2EAA1BBB1BFD010DC0FA
:104B0000AA1FBB1FEE1FFF1FA217B307E407F5077D
:104B100020F0A21BB30BE40BF50B661F771F881F59
:104B2000991F1A9469F760957095809590959B01EF
:104B3000AC01BD01CF0108955058BB27AA270E94A0
:104B4000B4250C9409250E94FB2438F00E9402250C
:104B500020F039F49F3F19F426F40C94F8240EF455
:104B6000E095E7FB0C94F224E92F0E941A2558F3F4
:104B7000BA17620773078407950720F079F4A6F542
:104B80000C943C250EF4E0950B2EBA2FA02D0B01B2
:104B9000B90190010C01CA01A0011124FF27591B82
:104BA00099F0593F50F4503E68F11A16F040A22F88
:104BB000232F342F4427585FF3CF469537952795F9
:104BC000A795F0405395C9F77EF41F16BA0B620BF8
:104BD000730B840BBAF09150A1F0FF0FBB1F661F3F
:104BE000771F881FC2F70EC0BA0F621F731F841F82
:104BF00048F4879577956795B795F7959E3F08F0A8
:104C0000B0CF9395880F08F09927EE0F9795879569
:104C100008950E941D260C9409250E94022558F033
:104C20000E94FB2440F029F45F3F29F00C94F22409
:104C300051110C943D250C94F8240E941A2568F318
:104C40009923B1F3552391F3951B550BBB27AA2745
:104C500062177307840738F09F5F5F4F220F331F7F
:104C6000441FAA1FA9F335D00E2E3AF0E0E832D047
:104C700091505040E695001CCAF72BD0FE2F29D04A
:104C8000660F771F881FBB1F261737074807AB071C
:104C9000B0E809F0BB0B802DBF01FF2793585F4F91
:104CA0003AF09E3F510578F00C94F2240C943D2587
:104CB0005F3FE4F3983ED4F3869577956795B79573
:104CC000F7959F5FC9F7880F911D9695879597F97E
:104CD0000895E1E0660F771F881FBB1F62177307F7
:104CE0008407BA0720F0621B730B840BBA0BEE1F0C
:104CF00088F7E09508950E9482266894B1110C947B
:104D00003D2508950E94222588F09F5798F0B92FDD
:104D10009927B751B0F0E1F0660F771F881F991FF0
:104D20001AF0BA95C9F714C0B13091F00E943C2531
:104D3000B1E008950C943C25672F782F8827B85F41
:104D400039F0B93FCCF3869577956795B395D9F748
:104D50003EF490958095709561957F4F8F4F9F4F52
:104D600008950E94612408F48FEF089597FB072EA1
:104D700016F4009407D077FD09D00E94CA2607FCDC
:104D800005D03EF4909581959F4F0895709561955B
:104D90007F4F0895AA1BBB1B51E107C0AA1FBB1F71
:104DA000A617B70710F0A61BB70B881F991F5A95B7
:104DB000A9F780959095BC01CD010895EE0FFF1FD6
:104DC0000590F491E02D09940F931F93CF93DF93F7
:104DD0008230910510F482E090E0E0913705F09187
:104DE000380520E030E0A0E0B0E0309719F14081D4
:104DF00051810281138148175907C8F0841795071C
:104E000069F4109731F012960C93129713961C9335
:104E100027C0009337051093380522C021153105AE
:104E200019F04217530718F49A01BD01EF01DF0191
:104E3000F801DBCF21153105F9F0281B390B24309F
:104E4000310580F48A819B816115710521F0FB0198
:104E50009383828304C09093380580933705FE01C5
:104E6000329644C0FE01E20FF31F819391932250CA
:104E70003109398328833AC02091350530913605B0
:104E8000232B41F42091510130915201309336058A
:104E90002093350520914F013091500121153105A6
:104EA00041F42DB73EB74091530150915401241B5A
:104EB000350BE0913505F0913605E217F307A0F4C4
:104EC0002E1B3F0B2817390778F0AC014E5F5F4F60
:104ED0002417350748F04E0F5F1F50933605409357
:104EE00035058193919302C0E0E0F0E0CF01DF91BE
:104EF000CF911F910F910895CF93DF93009709F4FD
:104F000081C0FC01329713821282A0913705B091C3
:104F10003805109781F420813181820F931F2091F1
:104F20003505309136052817390751F5F0933605C8
:104F3000E093350567C0ED0120E030E0CE17DF07D4
:104F400040F44A815B819E0141155105F1F0EA016F
:104F5000F5CFD383C28340815181840F951FC81739
:104F6000D90759F488819981840F951F02969183FE
:104F700080838A819B81938382832115310529F463
:104F8000F0933805E09337053DC0E901FB83EA83E0
:104F900049915991C40FD51FEC17FD0761F4808129
:104FA0009181840F951F0296E901998388838281FC
:104FB00093819B838A83E0E0F0E012968D919C912F
:104FC0001397009719F0FD01DC01F7CF8D919C91AB
:104FD00011979D012E5F3F4F820F931F2091350542
:104FE000309136052817390769F4309729F4109263
:104FF00038051092370502C013821282B09336052D
:10500000A0933505DF91CF910895A0E0B0E0EBE0EB
:10501000F8E20C944725EC01009721F4CB010E94A3
:10502000E426B4C0FC01E60FF71F9C0122503109B1
:10503000E217F30708F4A8C0D9010D911C9111974C
:1050400006171707B0F00530110508F49BC0C8011A
:1050500004978617970708F495C002501109061B9C
:10506000170B019311936D937C93CF010E947C27C2
:1050700089C05B01A01AB10A4C01800E911EA0915B
:105080003705B0913805612C712CE12CF12C10976B
:1050900009F446C08D919C911197A815B905B1F5F9
:1050A0006C0142E0C40ED11CCA14DB0478F14C013F
:1050B0008A189B08640142E0C40ED11C1296BC9071
:1050C00012971396AC91B5E0CB16D10440F0B282A2
:1050D000A38391828082D9016D937C9309C00E5F76
:1050E0001F4F800F911FF90191838083EB2DFA2FC1
:1050F000E114F10431F0D7011396FC93EE9312976B
:1051000041C0F0933805E09337053CC06816790636
:1051100008F43C017D0112960D90BC91A02DB7CFF3
:10512000809135059091360588169906E1F466164A
:105130007706C8F480914F0190915001009741F497
:105140008DB79EB74091530150915401841B950B2C
:10515000E817F907C8F4F0933605E0933505F9012F
:10516000718360830FC0CB010E94E4267C0100970D
:1051700059F0A801BE010E94D028CE010E947C27D0
:10518000C70104C0CE0102C080E090E0CDB7DEB719
:10519000EEE00C94632581E090E0F8940C94F828FC
:1051A000FB01DC0102C001900D9241505040D8F744
:1051B0000895FB01DC018D91019080190110D9F354
:1051C000990B0895FB01DC0101900D920020E1F79D
:1051D0000895FB01DC014150504048F001900D92D0
:1051E0000020C9F701C01D9241505040E0F70895DA
:0451F000F894FFCF61
:1051F400FFFFFFFF01E803E803E8030B0079040065
:1052040000580264006400C800C8000A0063016416
:1052140000010A0058020196006E000A00BD020156
:10522400000A0058025902C9000A00FA000C03E8F7
:10523400035401000000400000A0400000803F0033
:10524400003905800000000000BC01371553010936
:1052540002840162017601000000007D07371564B5
:10526400026E0D0D0A0067657420002E74787400B8
:105274003C5200542E46726F6D4E65787400623451
:02528400000028
:00000001FF
